:020000040800F2
:10A000005804002001A100089FAD000835AD0008EC
:10A010009DAD000849A1000839B10008000000000A
:10A02000000000000000000000000000C3AD0008B8
:10A030004BA1000800000000C1AD0008C5AD00083C
:10A040001BA100081BA100081BA100081BA1000800
:10A050001BA100081BA100081BA100081BA10008F0
:10A060001BA100081BA100081BA100081BA10008E0
:10A070001BA100081BA100081BA100081BA10008D0
:10A080001BA100081BA100081BA100081BA10008C0
:10A090001BA100081BA100081BA100081BA10008B0
:10A0A0001BA100081BA100081BA100081BA10008A0
:10A0B0001BA100081BA100081BA100081BA1000890
:10A0C0001BA100081BA100081BA100081BA1000880
:10A0D0001BA100080DB100081BA100081BA100086E
:10A0E0001BA100081BA100081BA10008DFF80CD071
:10A0F00000F018F80048004759B100085804002043
:10A100000648804706480047FEE7FEE7FEE7FEE711
:10A11000FEE7FEE7FEE7FEE7FEE7FEE72DAE0008FE
:10A12000EDA00008064C074D06E0E06840F0010392
:10A1300094E8070098471034AC42F6D3FFF7DAFFF3
:10A1400048B2000868B20008FEE7704710B590F802
:10A1500021100024022903D00421816301243DE061
:10A1600001680A6822F00E020A6001680A6822F09B
:10A1700001020A601A4A0168914201D1012121E0DD
:10A18000174A1432914201D110211BE0144A28329F
:10A19000914201D1891515E0114A3C32914201D119
:10A1A00089140FE00E4A5032914202D14FF48031AF
:10A1B00008E00B4A6432914202D14FF4801101E071
:10A1C0004FF08071064A083A5160012180F8211051
:10A1D000002180F82010416B01B18847204610BD56
:10A1E0000800024031B500F0EFF8009C0546601C05
:10A1F00000D0641C00F0E8F8401BA042FAD338BD40
:10A200002DE9F84FDFF890A100220AF1040B144663
:10A2100001274FF00F090BF1040E00BF0B6807FA7E
:10A2200004F52B40AB4274D1DFF870C14E68A6EB49
:10A230000C0866452BD00DDC032E34D005DC36B37C
:10A24000012E19D0022E2FD11BE0112E16D0122E66
:10A250002AD119E0B8F5881F19D006DCB8F5803F7F
:10A2600015D0B8F5801F1FD111E0B8F5001F0ED032
:10A27000B8F5041F18D10AE0CA6815E0CA68121DB3
:10A2800012E0CA6808320FE0CA680C320CE08A6833
:10A290002AB1012A4FF0080203D0456104E00422EC
:10A2A00002E0056100E00022FF2B01D8064601E034
:10A2B00000F104064FEA840501D9A5F12005D6F87E
:10A2C00000C009FA05F82CEA080C02FA05F54CEA78
:10A2D000050CC6F800C04D68ED0057D5304DAE698D
:10A2E00046F00106AE61AD6924F0030605F00105F4
:10A2F00000952C4D06EB050CDCF80850A6074FEA3C
:10A30000167809FA08F6B543274EB04202D1002666
:10A3100010E03BE0254EB04201D101260AE0244E78
:10A32000B04201D1022605E0224EB04201D10326FF
:10A3300000E0042606FA08F62E43CCF808604D68C3
:10A34000DAF80060ED03554601D51E4300E09E4358
:10A350002E604D68DBF80060AD035D4601D51E43FD
:10A3600000E09E432E604D68DEF80060ED02754609
:10A3700001D51E4300E09E432E604D68AD020E4D98
:10A380002E6801D51E4300E09E432E60641C102CF5
:10A39000FFF444AFBDE8F88F000401400000111045
:10A3A000001002400000014000080140000C014084
:10A3B00000100140001401400C0401400AB1016189
:10A3C00070470904FBE7000001480068704700007F
:10A3D0001400002002480168491C01607047000019
:10A3E00014000020074810B5016841F01001016019
:10A3F000032000F08BF8002000F006F800F018F8B9
:10A40000002010BD0020024010B5044607484FF45C
:10A410007A710068B0FBF1F000F01FFB00222146CA
:10A42000501E00F053F8002010BD00001000002066
:10A430001E4808B5816941F001018161806900F021
:10A4400001000090032000F061F8002211466FF037
:10A450000B0000F03BF8002211466FF00A0000F0FC
:10A4600035F8002211466FF0090000F02FF80022A5
:10A470001146501F00F02AF800221146101F00F06C
:10A4800025F800221146901E00F020F80022114607
:10A49000501E00F01BF80648416821F0E061416061
:10A4A000416841F00071416008BD000000100240A9
:10A4B0000000014000F01F0201219140400980008E
:10A4C00000F1E020C0F8001170470000F0B40E4B1E
:10A4D0001B680C46C3F30223C3F10705042D00D902
:10A4E0000425191D072901D2002300E0DB1E0126E7
:10A4F00006FA05F1491E214099409E40761E1640FD
:10A500003143F0BC00F04CBC0CED00E0064900F01B
:10A51000070208684FF6FF03184040EA0220034A8A
:10A5200010430860704700000CED00E00000FA05E1
:10A530002DE9F047DFF83C8105460E46D8F80000CB
:10A5400000F00700B0420CD2D8F8001021F007014B
:10A550003143C8F80010D8F8000000F00700B042FE
:10A5600063D12878444C800705D56068A96820F03D
:10A57000F000084360602878C00745D0686801286B
:10A5800016D02168022816D0890700294DDA6168A3
:10A5900021F0030101436160FFF716FF6968074678
:10A5A00041F2883001290FD00229814619D027E0D5
:10A5B00021688903E9E78901E7E700BFFFF704FFA6
:10A5C000C11B494501D918E081466068C0F381008C
:10A5D0000128F3D118E000BFFFF7F6FEC11B494583
:10A5E0000BD86068C0F381000228F5D10CE000BFF1
:10A5F000FFF7EAFEC11B494502D90320BDE8F087F9
:10A60000606810F00C0FF3D1D8F80010404601F04C
:10A610000701B1420BD9016821F007013143016004
:10A62000006800F00700B04201D00120E6E728787A
:10A63000400705D56068E96820F4E0600843606081
:10A640002878000706D56068296920F4605040EA40
:10A65000C100606000F03CF86168084AC1F3031172
:10A66000515CC840064908600020FFF7CDFE00207D
:10A67000C4E70000002002400010024030B2000891
:10A680001000002001480068704700001000002002
:10A690000448054900684968044AC1F30221515C35
:10A6A000C8407047100000200010024040B200086F
:10A6B0000448054900684968044AC1F3C221515C55
:10A6C000C8407047100000200010024040B200084F
:10A6D00010B512A385B00FCB8DE80F0013A0144B5B
:10A6E000006804905A68134802F00C0104290FD046
:10A6F00008290DD1C2F38344D2031DF8041009D5F3
:10A700005A6804ABC2F340429A5CB0FBF2F0484393
:10A7100005B010BD08484843FAE7000002030405ED
:10A72000060708090A0B0C0D0E0F1010010200009D
:10A730000010024000127A0000093D002DE9F84F98
:10A7400004460078B94DC00748D06868C0F381005E
:10A75000012807D06868C0F38100022809D1686821
:10A76000C00306D52868800338D5606800286FD0FC
:10A7700034E06068B0F5803F0BD010B1B0F5A02F89
:10A7800011D0286820F480302860286820F48020C8
:10A7900002E0286840F480302860606888B1FFF7E4
:10A7A00013FE064609E0286840F480202860F0E7A0
:10A7B000FFF70AFE801B642875D828688003F7D548
:10A7C0000CE0FFF701FE064605E000BFFFF7FCFDC9
:10A7D000801B6428F0D828688003F7D42078944E32
:10A7E00080074FF001094FF000083BD5686810F072
:10A7F0000C0F07D06868C0F38100022809D168688F
:10A80000C00306D42868800714D5206901281FD109
:10A8100010E02069B0B1C6F80090FFF7D5FD0746FB
:10A8200005E000BFFFF7D0FDC01B0228C4D8286890
:10A830008007F7D52868616920F0F80040EAC10078
:10A8400028600FE0C6F80080FFF7BEFD074606E06F
:10A85000E9E000BFFFF7B8FDC01B022823D8286835
:10A860008007F7D4207800072CD57248A169D9B1A8
:10A87000C0F80090FFF7A8FD074604E0FFF7A4FD2D
:10A88000C01B02280FD8686A8007F7D56A484FF4C2
:10A89000FA510068B0FBF1F0009000BF0098411E33
:10A8A0000091FAD20EE080E0C0F80080FFF78CFD46
:10A8B000074604E0FFF788FDC01B022875D8686AC8
:10A8C0008007F7D42078400760D5E8690027C000EA
:10A8D00008D4E86940F08050E861E869012700F099
:10A8E0008050009055480168C90513D4016883461B
:10A8F00041F480710160FFF767FD824606E000BF0A
:10A90000FFF762FDA0EB0A0064284ED8DBF80000D8
:10A91000C005F5D5E06801280AD008B1052813D094
:10A92000286A20F001002862286A20F0040002E072
:10A93000286A40F001002862E06841F2883B98B143
:10A94000FFF742FD82460BE0286A40F004002862CF
:10A95000EEE700BFFFF738FDA0EB0A0159455AD8D2
:10A96000286A8007F6D50CE0FFF72EFD824605E049
:10A97000FFF72AFDA0EB0A0159454CD8286A800749
:10A98000F6D41FB1E86920F08050E861E06988B32F
:10A990006968C1F38101022945D00228C6F86080A8
:10A9A00004D0FFF711FD044638E034E0FFF70CFD5A
:10A9B000074604E0FFF708FDC01B02282BD82868D3
:10A9C0008001F7D4206AB0F5803F05D16868A1689E
:10A9D00020F4003008436860D4E90801084369683E
:10A9E00021F4741108436860C6F86090FFF7ECFC2E
:10A9F000044606E015E000BFFFF7E6FC001B022856
:10AA000009D828688001F7D50BE000BFFFF7DCFC10
:10AA1000001B022802D90320BDE8F88F28688001B6
:10AA2000F4D40020F8E70120F6E70000001002400F
:10AA300000004242800442421000002000700040AA
:10AA40004FF0E0210428086903D020F004000861D9
:10AA5000704740F00400FAE7704710B5401EB0F1AF
:10AA6000807F01D3012010BD4FF0E02460610F21F1
:10AA7000601700F095F90020A061072020610020F8
:10AA800010BD10B5FFF7E8FF10BD704770B5026844
:10AA900004461068D168536910F00F0F51D003F0CD
:10AAA000010501F4907635435DD0C20705D0CA0593
:10AAB00003D5E26B42F00102E263420705D5DA07F3
:10AAC00003D0E26B42F00202E263820705D5DA07A7
:10AAD00003D0E26B42F00402E263020705D5DA0715
:10AAE00003D0E26B42F00802E263E26B002A34D04A
:10AAF000800604D5880602D5204600F0D1F92068EA
:10AB00004069E16BC0F3801001F008010143204669
:10AB100024D000F0B7F92068416949061AD5416987
:10AB200021F040014161606BA0B11B494163606B42
:10AB3000FFF70CFB002810D0606B416BBDE8704044
:10AB4000084783060FD58B060DD52046BDE870401B
:10AB500000F0A6B92046FFF798FF70BDFFF795FFFC
:10AB60000020E06370BD030606D50B0604D5204621
:10AB7000BDE8704000F098BA4006F3D54806F1D51C
:10AB8000D168204621F04001D160202184F839109D
:10AB900000F0CFF870BD000075AE000870B504007D
:10ABA00004D094F83900002510B106E0012070BDF2
:10ABB00084F83850204600F023F8242084F8390027
:10ABC0002068C16821F40051C160204600F0B4F94A
:10ABD0002068016921F4904101612068416921F0F8
:10ABE0002A0141612068C16841F40051C160E563F8
:10ABF000202084F8390084F83A00002070BD00005D
:10AC000010B50068154986B0884225D1144881697D
:10AC100041F4804181618069124C00F480400490CD
:10AC20004FF40070009002200190032003906946C9
:10AC30002046FFF7E5FA00212015CDE90001029139
:10AC400069462046FFF7DCFA002211462520FFF76F
:10AC50003DFC2520FFF72EFC06B010BD003801405A
:10AC6000001002400008014090F83A30202B22D119
:10AC7000F9B1F2B190F83830012B1CD08162828595
:10AC8000C2850021C163222280F83A2080F8381062
:10AC90000168CA6842F48072CA6001684A6942F079
:10ACA00001024A610068C16841F02001C1600020D2
:10ACB00070470120704702207047000010B50068FF
:10ACC000094988420FD101220849094800F012F8C9
:10ACD000012206490648FFF7C7FF05480068C1681A
:10ACE00041F04001C16010BD00380140000000206B
:10ACF0001800002090F83930202B18D1A9B1A2B14A
:10AD000090F83830012B12D001628284C284002175
:10AD1000C163212280F8392080F838100068C168AA
:10AD200041F08001C160002070470120704702207F
:10AD300070477047FEE7000030B5164885B081695E
:10AD400041F010018161816901F010010491816974
:10AD500041F020018161816901F020010491816944
:10AD600041F0040181618069012200F004000A4D74
:10AD70005403049021462846FFF720FB0120CDE92B
:10AD800000400220039069462846FFF739FA05B0D3
:10AD900030BD00000010024000100140FEE7704787
:10ADA0000907090E002806DA00F00F0000F1E02084
:10ADB00080F8141D704700F1E02080F800147047FF
:10ADC0007047704710B5FFF705FBBDE81040FFF76F
:10ADD00058BE10B590B002200090012004901020C1
:10ADE0000024059007946846FFF7A8FC00B1FEE731
:10ADF0000F20CDE90A040C940D9400210AA80E94AA
:10AE0000FFF796FB00B1FEE7FFF73CFC4FF47A71C9
:10AE1000B0FBF1F0FFF721FE0420FFF711FE002246
:10AE20001146501EFFF752FB10B010BD0D480168CF
:10AE300041F00101016041680B4A11404160016825
:10AE40000A4A11400160016821F4802101604168D3
:10AE500021F4FE0141604FF41F0181600449C003E9
:10AE600008607047001002400000FFF8FFFFF6FE88
:10AE700008ED00E010B5406A0021C185C184FFF7EC
:10AE800004FE10BD0168CA6822F49072CA600168AD
:10AE90004A6922F001024A61202180F83A10704785
:10AEA00010B590F83A10222901D0022010BD816817
:10AEB000B1F5805F11D00169002901681FD0496890
:10AEC00001F07F03816A4A1C82620B70C18D491EAA
:10AED0000904090CC18518D02BE00269816A002A97
:10AEE0000268526805D0D2B20A80816A491C816228
:10AEF000ECE7C2F308020A80816A891CF7E74A6816
:10AF0000816A4B1C83620A70E0E70168CA6822F01C
:10AF10002002CA600168CA6822F48072CA600168AF
:10AF20004A6922F001024A61202180F83A10FFF7B5
:10AF3000C5FE002010BD00002DE9F0410446006868
:10AF40000169E26821F44051114301612169A0685F
:10AF50000843616908432168CA6841F20C639A4357
:10AF60000243CA6020684169A26921F4407111431B
:10AF700041614C4920686425322688423CD1FFF764
:10AF800097FB00EBC00101EB001061688900B0FB8A
:10AF9000F1F7FFF78DFB00EBC00101EB00106168DA
:10AFA000B0468900B0FBF1F0B0FBF5F06FF018018E
:10AFB000484307EB800106EB0110B0FBF5F000F011
:10AFC000F006FFF775FB00EBC00101EB00106168B4
:10AFD0008900B0FBF1F0B0FBF5F006EB0016FFF7CF
:10AFE00067FB00EBC00101EB001061688900B0FB5A
:10AFF000F1F7FFF75DFB3BE0FFF74AFB00EBC00119
:10B0000001EB001061688900B0FBF1F7FFF740FB2E
:10B0100000EBC00101EB00106168B0468900B0FB95
:10B02000F1F0B0FBF5F06FF01801484307EB800139
:10B0300006EB0110B0FBF5F000F0F006FFF728FB7F
:10B0400000EBC00101EB001061688900B0FBF1F07A
:10B05000B0FBF5F006EB0016FFF71AFB00EBC001A2
:10B0600001EB001061688900B0FBF1F7FFF710FBFE
:10B0700000EBC00101EB001061688900B0FBF1F04A
:10B08000B0FBF5F06FF01801484307EB800108EBC7
:10B090000110B0FBF5F0216800F00F00304488602B
:10B0A000BDE8F0810038014090F83910212901D025
:10B0B000022070478168B1F5805F016A0BD04A1C9D
:10B0C0000262026809785160C18C491E0904090CAA
:10B0D000C1840ED017E009880268C1F308015160ED
:10B0E00001690029016A02D0491C0162ECE7891C50
:10B0F000FBE70168CA6822F08002CA600068C16884
:10B1000041F04001C1600020704700000148FFF796
:10B11000BDBC0000180000200A4610B501460548D5
:10B12000FFF7E8FD03480068C16841F04001C160D5
:10B1300010BD000018000020FEE702E008C8121F42
:10B1400008C1002AFAD170477047002001E001C110
:10B15000121F002AFBD17047012080F310880020C5
:10B1600080F31088FFF73EF9FFF733FE62B6FFF772
:10B17000E3FD2A4828490C2201604FF4E131416087
:10B1800000218160C160C0E904128161C161FFF7E3
:10B1900005FD00B1FEE70C212148FFF7BDFF204966
:10B1A0000122491E1D48FFF75FFD1D4D1D4FDFF8B1
:10B1B00078801E4C4FF47A796D1E4FF400564FF490
:10B1C000FA7A002231462046FFF7F8F86420FFF7AC
:10B1D00009F82878312804D0322809D0392810D02D
:10B1E00011E0002231462046FFF7E8F8504605E01E
:10B1F000002231462046FFF7E1F84846FEF7F2FF0D
:10B2000001E0C8F80070012231462046FFF7D6F869
:10B210005046FEF7E7FFD4E7003801401800002051
:10B22000010000200400FA050CED00E000100140D0
:10B2300000000000000000000102030406070809E6
:10B24000000000000102030468B2000800000020B2
:10B25000180000003AB1000880B200081800002071
:10B26000400400004AB10008004669726D776172BF
:10B27000652D320D0A00000000A24A040000000003
:040000050800A0ED62
:00000001FF
